:10800000D307219280CD4180CD4A80CD5380CD537E
:1080100080CD8B80CD6480DA3B80CD7180CD828035
:1080200021A680CD4180CD4A80CD8B80CD6480DA81
:108030003B80CD7180CD8280C33C80FFD306C300DE
:10804000047ED3F0237ED3F123C97ED3F2237ED3E3
:10805000F323C97ED3F4237ED3F5237ED3F6237E88
:10806000D3F723C9DBF2775F23DBF3775723D5F10F
:10807000C9DBF47723DBF57723DBF67723DBF777B0
:1080800023C9DBF87723DBF97723C9DBF0B7C0C35B
:108090008B80BE00842100002041000080BFFFFFD4
:1080A000DEADBEEFFFFF3E000432FFFFDEADBEEFF0
:0280B000FFFFD0
:1003C000000000009E80B080F0F0FFFFF0F0FFFF23
:0803D000000000000000000025
:0000000000
